:100000000C943D000C9452000C9452000C9452003D
:100010000C9452000C9452000C9452000C94520018
:100020000C9452000C9452000C9452000C94520008
:100030000C9452000C9452000C9452000C945200F8
:100040000C9452000C9452000C9452000C945200E8
:100050000C9452000C9452000C9452000C945200D8
:100060000C9452000C94520063686F6963650045FC
:100070006E74657220796F75720011241FBECFEF08
:10008000D8E0DEBFCDBF11E0A0E0B1E0E6E4F6E0ED
:1000900002C005900D92A23AB107D9F70E94CB0198
:1000A0000C9421030C94000080EF84B98FE085B993
:1000B00087B918B800000000089580EF87B98FE075
:1000C00088B984B915B88FE99FE00197F1F700C0AE
:1000D00000000895CF930E94540086B190E00E94E2
:1000E0006F01189B08C0199B08C01A9B08C01B9978
:1000F00008C0C3E007C0C0E005C0C1E003C0C2E063
:1001000001C0CAE00E945D00309B08C0319B08C05E
:10011000329B08C0339908C0E3E007C0E0E005C0A7
:10012000E1E003C0E2E001C0EAE02FEF80E792E007
:10013000215080409040E1F700C00000EA3061F0BB
:10014000CA3051F024E0E29FF0011124EC0FF11DC0
:10015000E050FF4F808101C088E4CF910895F99964
:10016000FECF92BD81BD60BDFA9AF99A0895F999C2
:10017000FECF92BD81BD81E08FBB80B50895FC01AB
:1001800060532081222319F0260F2193FACF08957E
:100190005E9A85E08A95F1F700005E980895CF9306
:1001A000DF931F92CDB7DEB7662311F0449A01C0EA
:1001B00044984598529A539A549A559A5D985C98E7
:1001C0005B985A9887FD5D9A86FD5C9A85FD5B9ADF
:1001D00084FD5A9A89830E94C8005D985C985B9858
:1001E0005A98898183FD5D9A82FD5C9A81FD5B9AB4
:1001F00080FD5A9A0E94C8005A9A5B9A5C9A5D9A4E
:100200000F90DF91CF9108954498459A5298539852
:10021000549855985E9A85E08A95F1F700004A9BBC
:1002200002C080E101C080E04B9980624C998064FB
:100230004D9980685E9895E09A95F1F700005E9A76
:1002400095E09A95F1F700004A9981604B99826098
:100250004C9984604D9988605E9808950E940401CD
:1002600087FDFCCF85E18A95F1F700000C9404012D
:10027000CF93C82F0E942E0160E08C2FCF910C9459
:10028000CF00CF93C82F0E942E0161E08C2FCF9119
:100290000C94CF00611102C0805801C080540C94AE
:1002A00038010E942E0190E0089581E00C943801FD
:1002B00082E00C943801CF93C82F0E942E01CA30DF
:1002C00049F4803410F080E001C080E48058CF9180
:1002D0000C94380161E08C2FCF910C94CF00CF9318
:1002E000DF93EC018991882319F00E945B01FACF1A
:1002F000DF91CF910895CF93DF93FC018491EF01BB
:100300002196882321F00E945B01FE01F7CFDF9147
:10031000CF910895CF93C82F3C9A3D9A569A529AFE
:10032000539A549A559A8FEF99EF0197F1F700C0BD
:1003300000005B9A5A9A0E94C8008FE19EE40197E0
:10034000F1F700C000000E94C8008FEF90E0019715
:10035000F1F700C000000E94C8008FEF90E0019705
:10036000F1F700C000005A980E94C8008FEF90E09B
:100370000197F1F700C0000088E20E94380188E090
:100380000E9438010E94550186E00E9438018C2F9E
:10039000CF910C943801CF93DF93CDB7DEB7C4561D
:1003A000D1090FB6F894DEBF0FBECDBF64E380E085
:1003B00090E00E94AF008CE00E948A010E946A00D7
:1003C000182F9E012F5F3F4F7901B22EB0940E94EB
:1003D00055018FE690E00E947B0161E080E00E9481
:1003E0004A0188E690E00E947B013FEF87EA91E6B0
:1003F000315080409040E1F700C0000088E10E9449
:1004000038010E94550180E191E00E946F0161E096
:1004100080E00E944A018DE191E00E946F01EFEFC0
:10042000F7EA21E6E150F0402040E1F700C000008B
:100430008FEC810F823020F00E946A00182FF8CFD5
:10044000113309F085C00E9455018EE291E00E94AF
:100450006F0161E080E00E944A018DE391E00E941B
:100460006F013FEF87EA91E6315080409040E1F71D
:1004700000C000000E94550160E080E00E944A0137
:100480000E946A00EFEFF3EC29E0E150F0402040D9
:10049000E1F700C0000000E010E08A3241F188344A
:1004A000C1F06701C00ED11EF601808360E0802F8D
:1004B0000E944A01F60180810E945B01FFEF23EC5C
:1004C00039E0F15020403040E1F700C000000F5FFC
:1004D0001F4F0E946A009FEFE9EFF0E09150E0406B
:1004E000F040E1F700C00000883499F3D6CFF7015F
:1004F000E00FF11F10820E94550180E090E00E9401
:10050000B700682FC7010E94BF006C018CE491E026
:100510000E946F0161E080E00E944A01860167014C
:10052000F60181916F01882359F061E08B2D8C0DCC
:100530000E944A01F80181918F010E945B01F0CF76
:10054000FFEF2FE433ECF15020403040E1F74CC096
:100550000E9455018CE591E00E946F0161E080E00E
:100560000E944A018FEF93EDE0E381509040E0401C
:10057000E1F700C000000E946A00182F183441F40F
:100580000E946A00182F61E080E00E944A01F6CFC5
:10059000812F0E945B01FFEF23EC39E0F1502040F6
:1005A0003040E1F700C0000060E281E090E00E948E
:1005B000AF00612F80E090E00E94AF000E945501E3
:1005C0008FEF93EDE0E381509040E040E1F700C011
:1005D00000008CE691E00E946F01FFEF27EA31E610
:1005E000F15020403040E1F700C000000E9455016A
:1005F0008DE791E00E946F0161E080E00E944A0176
:100600008AE891E00E946F018FEF97EAE1E681505E
:100610009040E040E1F700C000000E946A009FECBB
:10062000980F9230D0F710E3813309F4D0CE0E94B6
:10063000550188E991E00E946F0181E090E00E94FD
:060640002103F894FFCF36
:100646003132334134353642373839432A30234440
:10065600312E456E6372797074696F6E00322E4367
:1006660068616E676520746865206B657900456E04
:10067600746572207465787420616E6400546F200E
:10068600656E64205072657373202A00456E63722E
:10069600797074656420746578742D00456E746590
:1006A6007220746865206B65792E2E004B65792063
:1006B6006973206368616E6765642E2E00436F6EF2
:1006C60074696E75653F3F3F3F00312E5965732053
:1006D600202020322E4E6F00476F6F6420627965AE
:0206E600000012
:00000001FF
