:100000000C943F000C9454000C9454000C94540035
:100010000C9454000C9454000C9454000C94540010
:100020000C9454000C9454000C9454000C94540000
:100030000C9454000C9454000C9454000C945400F0
:100040000C9454000C9454000C9454000C945400E0
:100050000C9454000C9454000C9454000C945400D0
:100060000C9454000C945400456E74657220796FA2
:10007000757220707265666572656E636500112425
:100080001FBECFEFD8E0DEBFCDBF11E0A0E0B1E0F2
:10009000E6EBF5E002C005900D92A23AB107D9F760
:1000A0000E94C9010C94D9020C94000080EF84B91D
:1000B0008FE085B987B918B800000000089580EF77
:1000C00087B98FE088B984B915B88FE99FE00197A7
:1000D000F1F700C000000895CF930E945600189BCE
:1000E00008C0199B08C01A9B08C01B9908C0C3E030
:1000F00007C0C0E005C0C1E003C0C2E001C0CAE063
:100100000E945F00309B09C0319B09C0329B09C02F
:1001100083B1811108C0E3E007C0E0E005C0E1E081
:1001200003C0E2E001C0EAE02FEF80E792E0215057
:1001300080409040E1F700C00000EA3061F0CA3032
:1001400051F024E0E29FF0011124EC0FF11DE0508A
:10015000FF4F808101C088E4CF910895F999FECFC7
:1001600092BD81BD60BDFA9AF99A0895F999FECFC2
:1001700092BD81BD81E08FBB80B50895FC012081D7
:10018000222319F0260F2193FACF0895429A85E091
:100190008A95F1F7000042980895CF93DF931F925C
:1001A000CDB7DEB7662311F0409A01C04098419860
:1001B000529A539A549A559A5D985C985B985A98BB
:1001C00087FD5D9A86FD5C9A85FD5B9A84FD5A9A4F
:1001D00089830E94C6005D985C985B985A988981D3
:1001E00083FD5D9A82FD5C9A81FD5B9A80FD5A9A3F
:1001F0000E94C6005A9A5B9A5C9A5D9A0F90DF91B2
:10020000CF9108954098419A529853985498559890
:10021000429A85E08A95F1F700004A9B02C080E18E
:1002200001C080E04B9980624C9980644D99806850
:10023000429895E09A95F1F70000429A95E09A95D8
:10024000F1F700004A9981604B9982604C99846073
:100250004D998860429808950E94020187FDFCCF65
:1002600085E18A95F1F700000C940201CF93C82F25
:100270000E942C0160E08C2FCF910C94CD00CF9385
:10028000C82F0E942C0161E08C2FCF910C94CD00DF
:10029000611102C0805801C080540C9436010E9444
:1002A0002C0190E0089581E00C94360182E00C94DA
:1002B0003601CF93C82F0E942C01CA3049F48034F4
:1002C00010F080E001C080E48058CF910C9436019A
:1002D00061E08C2FCF910C94CD00CF93DF93EC0194
:1002E0008991882319F00E945901FACFDF91CF91AB
:1002F0000895CF93DF93FC018491EF012196882329
:1003000021F00E945901FE01F7CFDF91CF910895AE
:10031000CF93C82F389A399A3A9A529A539A549A44
:10032000559A8FEF99EF0197F1F700C000005B9AA3
:100330005A9A0E94C6008FE19EE40197F1F700C02F
:1003400000000E94C6008FEF90E00197F1F700C017
:1003500000000E94C6008FEF90E00197F1F700C007
:1003600000005A980E94C6008FEF90E00197F1F7C5
:1003700000C0000088E20E94360188E00E94360139
:100380000E94530186E00E9436018C2FCF910C947D
:100390003601CF93DF93CDB7DEB7CE56D1090FB676
:1003A000F894DEBF0FBECDBF8CE00E9488010E9492
:1003B0006C00182F0E94530188E690E00E9479019A
:1003C0002FEF87EA91E6215080409040E1F700C08E
:1003D000000088E10E9436010E94530180E191E013
:1003E0000E946D0161E080E00E9448018DE191E092
:1003F0000E946D012FEF87EA91E6215080409040E6
:10040000E1F700C000008FEC810F823020F00E94E5
:100410006C00182FF8CF113309F055C00E9453011A
:100420008EE291E00E946D0161E080E00E9448014F
:100430008DE391E00E946D012FEF87EA91E6215054
:1004400080409040E1F700C000000E9453010E94EC
:100450006C00182F2FEF83EC99E0215080409040E2
:10046000E1F700C00000183491F3A6961FAFA697DD
:10047000BE016B597F4FCE0101960E94CE02812FA3
:100480000E945901113419F70E94530181E090E054
:100490000E94B600682FCE0101960E94BE008C011A
:1004A0008CE491E00E946D0161E080E00E944801CF
:1004B000C8010E946D012FEF8BE792E92150804027
:1004C0009040E1F73EC00E9453018CE591E00E940C
:1004D0006D0161E080E00E9448012FEF83ED90E321
:1004E000215080409040E1F700C000000E946C0065
:1004F000182F183459F40E946C00182F61E080E026
:100500000E944801812F0E945901F3CF612F81E0A1
:1005100090E00E94AE000E9453012FEF83ED90E324
:10052000215080409040E1F700C000008CE691E04F
:100530000E946D012FEF87EA91E6215080409040A4
:10054000E1F700C000000E9453018DE791E00E9496
:100550006D0161E080E00E9448018AE891E00E941C
:100560006D012FEF87EA91E6215080409040E1F73E
:1005700000C000000E946C00182F8FEC810F8230A9
:10058000C8F7113309F416CF0E94530188E991E0AE
:100590000E946D0181E090E00E94D902FB01DC0124
:1005A0000D900020E9F7119701900D920020E1F7DE
:0605B0000895F894FFCF4E
:1005B6003132334134353642373839432A302344D1
:1005C600312E456E6372797074696F6E00322E43F8
:1005D60068616E676520746865206B657900456E95
:1005E600746572207465787420616E6400546F209F
:1005F600656E64205072657373204100456E6372A8
:10060600797074656420746578742D00456E746520
:100616007220746865206B65792E2E004B657920F3
:100626006973206368616E6765642E2E00436F6E82
:1006360074696E75653F3F3F3F00312E59657320E3
:10064600202020322E4E6F00476F6F64206279653E
:020656000000A2
:00000001FF
