:100000000C9434000C943E000C943E000C943E0082
:100010000C943E000C943E000C943E000C943E0068
:100020000C943E000C943E000C943E000C943E0058
:100030000C943E000C943E000C943E000C943E0048
:100040000C943E000C943E000C943E000C943E0038
:100050000C943E000C943E000C943E000C943E0028
:100060000C943E000C943E0011241FBECFEFD8E04C
:10007000DEBFCDBF0E946A000C948D000C9400007E
:100080009093C5008093C40088E18093C10086E00E
:100090008093C2000895982F8091C00085FFFCCF07
:1000A0009093C60008958091C00087FFFCCF809197
:1000B000C6000895F999FECF92BD81BD60BDFA9A40
:1000C000F99A0895F999FECF92BD81BD81E08FBB69
:1000D00080B508951092C50087E68093C40088E13A
:1000E0008093C10086E08093C20020E030E041E0D0
:1000F000F999FECF32BD21BD4FBB90B58091C000B4
:1001000085FFFCCF9093C6002F5F3F4F84E02130E6
:0E011000380771F780E090E00895F894FFCF73
:00000001FF
