:100000000C9434000C943E000C943E000C943E0082
:100010000C943E000C943E000C943E000C943E0068
:100020000C943E000C943E000C943E000C943E0058
:100030000C943E000C943E000C943E000C943E0048
:100040000C943E000C943E000C943E000C943E0038
:100050000C943E000C943E000C943E000C943E0028
:100060000C943E000C943E0011241FBECFEFD8E04C
:10007000DEBFCDBF0E9440000C9468000C940000CD
:1000800039988FEF8AB980917A00866880937A00D8
:1000900080917C00806280937C0080917C008160F4
:1000A00080937C0080917A00806480937A008091B4
:1000B0007A0084FFFCCF809179008A3010F45D9A39
:1000C00001C05D9880917A00806180937A00EACFC8
:0400D000F894FFCFD2
:00000001FF
