:100000000C9434000C9449000C9449000C94490061
:100010000C9449000C9449000C9449000C9449003C
:100020000C9449000C9449000C9449000C9449002C
:100030000C9449000C9449000C9449000C9449001C
:100040000C9449000C9449000C9449000C9449000C
:100050000C9449000C9449000C9449000C944900FC
:100060000C9449000C94490011241FBECFEFD8E036
:10007000DEBFCDBF11E0A0E0B1E0E2E3F1E002C0FD
:1000800005900D92A235B107D9F70E9465000C9436
:1000900097000C9400009093C5008093C40088E101
:1000A0008093C10086E08093C2000895982F8091CC
:1000B000C00085FFFCCF9093C60008958091C000DA
:1000C00087FFFCCF8091C6000895DF93CF93CDB713
:1000D000DEB7C255D0400FB6F894DEBF0FBECDBF1D
:1000E0001092C50087E68093C40088E18093C10028
:1000F00086E08093C200DE011196E0E0F1E082E547
:1001000001900D928150E1F7FE01319620E43CE927
:100110000AC08091C00085FFFCCF9093C600C90142
:100120000197F1F731969081992399F7FFCFF894D1
:02013000FFCFFF
:10013200452F31352F30363520507261736164207E
:100142004D6164757368616E6B61202C20452F319F
:10015200352F3037362053616E64757368692044D9
:10016200696C656B61202C20452F31352F3232307E
:100172002048617368616E204D616C6974687468AF
:0201820061001A
:00000001FF
