:100000000C9434000C9449000C9449000C94490061
:100010000C9449000C9449000C9449000C9449003C
:100020000C9449000C9449000C9449000C9449002C
:100030000C9449000C9449000C9449000C9449001C
:100040000C9449000C9449000C9449000C9449000C
:100050000C9449000C9449000C9449000C944900FC
:100060000C9449000C94490011241FBECFEFD8E036
:10007000DEBFCDBF11E0A0E0B1E0E4E2F1E002C0FC
:1000800005900D92AA30B107D9F70E9464000C9434
:1000900090000C9400009093C5008093C40088E108
:1000A0008093C10086E08093C20008959091C000C3
:1000B00095FFFCCF8093C60008958091C00087FF14
:1000C000FCCF8091C6000895CF93DF93CDB7DEB704
:1000D00029970FB6F894DEBF0FBECDBF87E090E042
:1000E0000E944B0089E0E0E0F1E0DE011196019012
:1000F0000D928A95E1F78E010F5F1F4FF8018191F4
:100100008F01882361F00E9456002FEF83ED90E36A
:10011000215080409040E1F700C00000EFCFFFCFBA
:04012000F894FFCF81
:0A012400452F31352F30363500002D
:00000001FF
