:100000000C9434000C943E000C943E000C943E0082
:100010000C943E000C943E000C943E000C943E0068
:100020000C943E000C943E000C943E000C943E0058
:100030000C943E000C943E000C943E000C943E0048
:100040000C943E000C943E000C943E000C943E0038
:100050000C943E000C943E000C943E000C943E0028
:100060000C943E000C943E0011241FBECFEFD8E04C
:10007000DEBFCDBF0E9469000C947B000C94000091
:100080009093C5008093C40088E18093C10086E00E
:100090008093C20008959091C00095FFFCCF80939B
:1000A000C60008958091C00087FFFCCF8091C600F4
:1000B0000895F999FECF92BD81BD60BDFA9AF99A73
:1000C0000895F999FECF92BD81BD81E08FBB80B5C7
:1000D000089587E690E00E944000C0E0D0E00E94D2
:1000E0005200182F682FCE010E945900812F0E94C4
:0A00F0004B002196F4CFF894FFCFE7
:00000001FF
