:100000000C9434000C943E000C943E000C943E0082
:100010000C943E000C943E000C943E000C943E0068
:100020000C943E000C943E000C943E000C943E0058
:100030000C943E000C943E000C943E000C943E0048
:100040000C943E000C943E000C943E000C943E0038
:100050000C943E000C943E000C943E000C943E0028
:100060000C943E000C943E0011241FBECFEFD8E04C
:10007000DEBFCDBF0E947C000C94C7000C94000032
:100080009093C5008093C40088E18093C10086E00E
:100090008093C2000895982F8091C00085FFFCCF07
:1000A0009093C60008958091C00087FFFCCF809197
:1000B000C6000895982F81548A3160F4892F9927BA
:1000C00087FD9095CE976AE170E00E94A000982F7E
:1000D0009F5B10C0892F81568A3160F4892F992740
:1000E00087FD90958E5590406AE170E00E94A000D7
:1000F000982F9F59892F08951092C50087E6809305
:10010000C40088E18093C10086E08093C2008091A2
:10011000C00087FFFCCF9091C6009A3039F48091DF
:10012000C00085FFFCCF9093C600F1CF8091C00046
:1001300085FFFCCF892F0E945A008093C600E7CF2D
:1001400097FB092E07260AD077FD04D00CD006D0E5
:1001500000201AF4709561957F4F0895F6F79095F9
:1001600081959F4F0895AA1BBB1B51E107C0AA1F91
:10017000BB1FA617B70710F0A61BB70B881F991F48
:100180005A95A9F780959095BC01CD010895F894F2
:02019000FFCF9F
:00000001FF
