:100000000C9434000C943E000C943E000C943E0082
:100010000C943E000C943E000C943E000C943E0068
:100020000C943E000C943E000C943E000C943E0058
:100030000C943E000C943E000C943E000C943E0048
:100040000C943E000C943E000C943E000C943E0038
:100050000C943E000C943E000C943E000C943E0028
:100060000C943E000C943E0011241FBECFEFD8E04C
:10007000DEBFCDBF0E9459000C946B000C940000B1
:100080009093C5008093C40088E18093C10086E00E
:100090008093C20008959091C00095FFFCCF80939B
:1000A000C60008958091C00087FFFCCF8091C600F4
:1000B000089587E690E00E9440000E9452002FEFD2
:1000C00039EF90E0215030409040E1F700C000004F
:0A00D0000E944B00F2CFF894FFCF1E
:00000001FF
